{
  "contractName": "MonsterGame",
  "abi": [
    {
      "inputs": [],
      "stateMutability": "payable",
      "type": "constructor"
    },
    {
      "anonymous": false,
      "inputs": [
        {
          "indexed": true,
          "internalType": "address",
          "name": "owner",
          "type": "address"
        },
        {
          "indexed": true,
          "internalType": "address",
          "name": "approved",
          "type": "address"
        },
        {
          "indexed": true,
          "internalType": "uint256",
          "name": "tokenId",
          "type": "uint256"
        }
      ],
      "name": "Approval",
      "type": "event"
    },
    {
      "anonymous": false,
      "inputs": [
        {
          "indexed": true,
          "internalType": "address",
          "name": "owner",
          "type": "address"
        },
        {
          "indexed": true,
          "internalType": "address",
          "name": "operator",
          "type": "address"
        },
        {
          "indexed": false,
          "internalType": "bool",
          "name": "approved",
          "type": "bool"
        }
      ],
      "name": "ApprovalForAll",
      "type": "event"
    },
    {
      "anonymous": false,
      "inputs": [
        {
          "indexed": true,
          "internalType": "address",
          "name": "from",
          "type": "address"
        },
        {
          "indexed": true,
          "internalType": "address",
          "name": "to",
          "type": "address"
        },
        {
          "indexed": true,
          "internalType": "uint256",
          "name": "tokenId",
          "type": "uint256"
        }
      ],
      "name": "Transfer",
      "type": "event"
    },
    {
      "inputs": [
        {
          "internalType": "address",
          "name": "to",
          "type": "address"
        },
        {
          "internalType": "uint256",
          "name": "tokenId",
          "type": "uint256"
        }
      ],
      "name": "approve",
      "outputs": [],
      "stateMutability": "nonpayable",
      "type": "function"
    },
    {
      "inputs": [
        {
          "internalType": "address",
          "name": "owner",
          "type": "address"
        }
      ],
      "name": "balanceOf",
      "outputs": [
        {
          "internalType": "uint256",
          "name": "",
          "type": "uint256"
        }
      ],
      "stateMutability": "view",
      "type": "function"
    },
    {
      "inputs": [],
      "name": "gameOwner",
      "outputs": [
        {
          "internalType": "address",
          "name": "",
          "type": "address"
        }
      ],
      "stateMutability": "view",
      "type": "function"
    },
    {
      "inputs": [
        {
          "internalType": "uint256",
          "name": "tokenId",
          "type": "uint256"
        }
      ],
      "name": "getApproved",
      "outputs": [
        {
          "internalType": "address",
          "name": "",
          "type": "address"
        }
      ],
      "stateMutability": "view",
      "type": "function"
    },
    {
      "inputs": [
        {
          "internalType": "address",
          "name": "owner",
          "type": "address"
        },
        {
          "internalType": "address",
          "name": "operator",
          "type": "address"
        }
      ],
      "name": "isApprovedForAll",
      "outputs": [
        {
          "internalType": "bool",
          "name": "",
          "type": "bool"
        }
      ],
      "stateMutability": "view",
      "type": "function"
    },
    {
      "inputs": [
        {
          "internalType": "uint256",
          "name": "",
          "type": "uint256"
        }
      ],
      "name": "monsters",
      "outputs": [
        {
          "internalType": "string",
          "name": "name",
          "type": "string"
        },
        {
          "internalType": "uint256",
          "name": "level",
          "type": "uint256"
        }
      ],
      "stateMutability": "view",
      "type": "function"
    },
    {
      "inputs": [],
      "name": "name",
      "outputs": [
        {
          "internalType": "string",
          "name": "",
          "type": "string"
        }
      ],
      "stateMutability": "view",
      "type": "function"
    },
    {
      "inputs": [
        {
          "internalType": "uint256",
          "name": "tokenId",
          "type": "uint256"
        }
      ],
      "name": "ownerOf",
      "outputs": [
        {
          "internalType": "address",
          "name": "",
          "type": "address"
        }
      ],
      "stateMutability": "view",
      "type": "function"
    },
    {
      "inputs": [
        {
          "internalType": "address",
          "name": "from",
          "type": "address"
        },
        {
          "internalType": "address",
          "name": "to",
          "type": "address"
        },
        {
          "internalType": "uint256",
          "name": "tokenId",
          "type": "uint256"
        }
      ],
      "name": "safeTransferFrom",
      "outputs": [],
      "stateMutability": "nonpayable",
      "type": "function"
    },
    {
      "inputs": [
        {
          "internalType": "address",
          "name": "from",
          "type": "address"
        },
        {
          "internalType": "address",
          "name": "to",
          "type": "address"
        },
        {
          "internalType": "uint256",
          "name": "tokenId",
          "type": "uint256"
        },
        {
          "internalType": "bytes",
          "name": "data",
          "type": "bytes"
        }
      ],
      "name": "safeTransferFrom",
      "outputs": [],
      "stateMutability": "nonpayable",
      "type": "function"
    },
    {
      "inputs": [
        {
          "internalType": "address",
          "name": "operator",
          "type": "address"
        },
        {
          "internalType": "bool",
          "name": "approved",
          "type": "bool"
        }
      ],
      "name": "setApprovalForAll",
      "outputs": [],
      "stateMutability": "nonpayable",
      "type": "function"
    },
    {
      "inputs": [
        {
          "internalType": "bytes4",
          "name": "interfaceId",
          "type": "bytes4"
        }
      ],
      "name": "supportsInterface",
      "outputs": [
        {
          "internalType": "bool",
          "name": "",
          "type": "bool"
        }
      ],
      "stateMutability": "view",
      "type": "function"
    },
    {
      "inputs": [],
      "name": "symbol",
      "outputs": [
        {
          "internalType": "string",
          "name": "",
          "type": "string"
        }
      ],
      "stateMutability": "view",
      "type": "function"
    },
    {
      "inputs": [
        {
          "internalType": "uint256",
          "name": "tokenId",
          "type": "uint256"
        }
      ],
      "name": "tokenURI",
      "outputs": [
        {
          "internalType": "string",
          "name": "",
          "type": "string"
        }
      ],
      "stateMutability": "view",
      "type": "function"
    },
    {
      "inputs": [
        {
          "internalType": "address",
          "name": "from",
          "type": "address"
        },
        {
          "internalType": "address",
          "name": "to",
          "type": "address"
        },
        {
          "internalType": "uint256",
          "name": "tokenId",
          "type": "uint256"
        }
      ],
      "name": "transferFrom",
      "outputs": [],
      "stateMutability": "nonpayable",
      "type": "function"
    },
    {
      "inputs": [
        {
          "internalType": "uint256",
          "name": "_attackingMonster",
          "type": "uint256"
        },
        {
          "internalType": "uint256",
          "name": "_defendingMonster",
          "type": "uint256"
        }
      ],
      "name": "battle",
      "outputs": [],
      "stateMutability": "nonpayable",
      "type": "function"
    },
    {
      "inputs": [
        {
          "internalType": "string",
          "name": "_name",
          "type": "string"
        },
        {
          "internalType": "address",
          "name": "_to",
          "type": "address"
        }
      ],
      "name": "createNewMonster",
      "outputs": [
        {
          "components": [
            {
              "internalType": "string",
              "name": "name",
              "type": "string"
            },
            {
              "internalType": "uint256",
              "name": "level",
              "type": "uint256"
            }
          ],
          "internalType": "struct MonsterGame.Monster",
          "name": "",
          "type": "tuple"
        }
      ],
      "stateMutability": "nonpayable",
      "type": "function"
    }
  ],
  "bytecode": "0x60806040526040518060400160405280600581526020017f5a63696f6e0000000000000000000000000000000000000000000000000000008152506040518060400160405280600281526020017f5a430000000000000000000000000000000000000000000000000000000000008152508160009081620000819190620003f1565b508060019081620000939190620003f1565b50505033600760006101000a81548173ffffffffffffffffffffffffffffffffffffffff021916908373ffffffffffffffffffffffffffffffffffffffff160217905550600660405180604001604052806040518060400160405280600281526020017f6c790000000000000000000000000000000000000000000000000000000000008152508152602001606081525090806001815401808255809150506001900390600052602060002090600202016000909190919091506000820151816000019081620001649190620003f1565b50602082015181600101555050620004d8565b600081519050919050565b7f4e487b7100000000000000000000000000000000000000000000000000000000600052604160045260246000fd5b7f4e487b7100000000000000000000000000000000000000000000000000000000600052602260045260246000fd5b60006002820490506001821680620001f957607f821691505b6020821081036200020f576200020e620001b1565b5b50919050565b60008190508160005260206000209050919050565b60006020601f8301049050919050565b600082821b905092915050565b600060088302620002797fffffffffffffffffffffffffffffffffffffffffffffffffffffffffffffffff826200023a565b6200028586836200023a565b95508019841693508086168417925050509392505050565b6000819050919050565b6000819050919050565b6000620002d2620002cc620002c6846200029d565b620002a7565b6200029d565b9050919050565b6000819050919050565b620002ee83620002b1565b62000306620002fd82620002d9565b84845462000247565b825550505050565b600090565b6200031d6200030e565b6200032a818484620002e3565b505050565b5b8181101562000352576200034660008262000313565b60018101905062000330565b5050565b601f821115620003a1576200036b8162000215565b62000376846200022a565b8101602085101562000386578190505b6200039e62000395856200022a565b8301826200032f565b50505b505050565b600082821c905092915050565b6000620003c660001984600802620003a6565b1980831691505092915050565b6000620003e18383620003b3565b9150826002028217905092915050565b620003fc8262000177565b67ffffffffffffffff81111562000418576200041762000182565b5b620004248254620001e0565b6200043182828562000356565b600060209050601f83116001811462000469576000841562000454578287015190505b620004608582620003d3565b865550620004d0565b601f198416620004798662000215565b60005b82811015620004a3578489015182556001820191506020850194506020810190506200047c565b86831015620004c35784890151620004bf601f891682620003b3565b8355505b6001600288020188555050505b505050505050565b612db580620004e86000396000f3fe608060405234801561001057600080fd5b506004361061010b5760003560e01c80636352211e116100a2578063b88d4fde11610071578063b88d4fde146102c8578063c0576b73146102e4578063c87b56dd14610315578063e985e9c514610345578063f6b12f28146103755761010b565b80636352211e1461022e57806370a082311461025e57806395d89b411461028e578063a22cb465146102ac5761010b565b8063115dd1ab116100de578063115dd1ab146101aa57806323b872dd146101da5780632a0c5221146101f657806342842e0e146102125761010b565b806301ffc9a71461011057806306fdde0314610140578063081812fc1461015e578063095ea7b31461018e575b600080fd5b61012a600480360381019061012591906119e1565b610393565b6040516101379190611a29565b60405180910390f35b610148610475565b6040516101559190611add565b60405180910390f35b61017860048036038101906101739190611b35565b610507565b6040516101859190611ba3565b60405180910390f35b6101a860048036038101906101a39190611bea565b61054d565b005b6101c460048036038101906101bf9190611d5f565b610664565b6040516101d19190611e51565b60405180910390f35b6101f460048036038101906101ef9190611e73565b610792565b005b610210600480360381019061020b9190611ec6565b6107f2565b005b61022c60048036038101906102279190611e73565b6108c9565b005b61024860048036038101906102439190611b35565b6108e9565b6040516102559190611ba3565b60405180910390f35b61027860048036038101906102739190611f06565b61099a565b6040516102859190611f42565b60405180910390f35b610296610a51565b6040516102a39190611add565b60405180910390f35b6102c660048036038101906102c19190611f89565b610ae3565b005b6102e260048036038101906102dd919061206a565b610af9565b005b6102fe60048036038101906102f99190611b35565b610b5b565b60405161030c9291906120ed565b60405180910390f35b61032f600480360381019061032a9190611b35565b610c17565b60405161033c9190611add565b60405180910390f35b61035f600480360381019061035a919061211d565b610c7f565b60405161036c9190611a29565b60405180910390f35b61037d610d13565b60405161038a9190611ba3565b60405180910390f35b60007f80ac58cd000000000000000000000000000000000000000000000000000000007bffffffffffffffffffffffffffffffffffffffffffffffffffffffff1916827bffffffffffffffffffffffffffffffffffffffffffffffffffffffff1916148061045e57507f5b5e139f000000000000000000000000000000000000000000000000000000007bffffffffffffffffffffffffffffffffffffffffffffffffffffffff1916827bffffffffffffffffffffffffffffffffffffffffffffffffffffffff1916145b8061046e575061046d82610d39565b5b9050919050565b6060600080546104849061218c565b80601f01602080910402602001604051908101604052809291908181526020018280546104b09061218c565b80156104fd5780601f106104d2576101008083540402835291602001916104fd565b820191906000526020600020905b8154815290600101906020018083116104e057829003601f168201915b5050505050905090565b600061051282610da3565b6004600083815260200190815260200160002060009054906101000a900473ffffffffffffffffffffffffffffffffffffffff169050919050565b6000610558826108e9565b90508073ffffffffffffffffffffffffffffffffffffffff168373ffffffffffffffffffffffffffffffffffffffff16036105c8576040517f08c379a00000000000000000000000000000000000000000000000000000000081526004016105bf9061222f565b60405180910390fd5b8073ffffffffffffffffffffffffffffffffffffffff166105e7610dee565b73ffffffffffffffffffffffffffffffffffffffff161480610616575061061581610610610dee565b610c7f565b5b610655576040517f08c379a000000000000000000000000000000000000000000000000000000000815260040161064c906122c1565b60405180910390fd5b61065f8383610df6565b505050565b61066c61195b565b600760009054906101000a900473ffffffffffffffffffffffffffffffffffffffff1673ffffffffffffffffffffffffffffffffffffffff163373ffffffffffffffffffffffffffffffffffffffff16146106fc576040517f08c379a00000000000000000000000000000000000000000000000000000000081526004016106f390612353565b60405180910390fd5b600060068054905090506006604051806040016040528086815260200160018152509080600181540180825580915050600190039060005260206000209060020201600090919091909150600082015181600001908161075c919061251f565b506020820151816001015550506107738382610eaf565b6040518060400160405280858152602001600181525091505092915050565b6107a361079d610dee565b82610ecd565b6107e2576040517f08c379a00000000000000000000000000000000000000000000000000000000081526004016107d990612663565b60405180910390fd5b6107ed838383610f62565b505050565b60006006838154811061080857610807612683565b5b9060005260206000209060020201905060006006838154811061082e5761082d612683565b5b90600052602060002090600202019050806001015482600101541061088a57600282600101600082825461086291906126e1565b92505081905550600181600101600082825461087e91906126e1565b925050819055506108c3565b600182600101600082825461089f91906126e1565b9250508190555060028260010160008282546108bb91906126e1565b925050819055505b50505050565b6108e483838360405180602001604052806000815250610af9565b505050565b6000806002600084815260200190815260200160002060009054906101000a900473ffffffffffffffffffffffffffffffffffffffff169050600073ffffffffffffffffffffffffffffffffffffffff168173ffffffffffffffffffffffffffffffffffffffff1603610991576040517f08c379a000000000000000000000000000000000000000000000000000000000815260040161098890612783565b60405180910390fd5b80915050919050565b60008073ffffffffffffffffffffffffffffffffffffffff168273ffffffffffffffffffffffffffffffffffffffff1603610a0a576040517f08c379a0000000000000000000000000000000000000000000000000000000008152600401610a0190612815565b60405180910390fd5b600360008373ffffffffffffffffffffffffffffffffffffffff1673ffffffffffffffffffffffffffffffffffffffff168152602001908152602001600020549050919050565b606060018054610a609061218c565b80601f0160208091040260200160405190810160405280929190818152602001828054610a8c9061218c565b8015610ad95780601f10610aae57610100808354040283529160200191610ad9565b820191906000526020600020905b815481529060010190602001808311610abc57829003601f168201915b5050505050905090565b610af5610aee610dee565b83836111c8565b5050565b610b0a610b04610dee565b83610ecd565b610b49576040517f08c379a0000000000000000000000000000000000000000000000000000000008152600401610b4090612663565b60405180910390fd5b610b5584848484611334565b50505050565b60068181548110610b6b57600080fd5b9060005260206000209060020201600091509050806000018054610b8e9061218c565b80601f0160208091040260200160405190810160405280929190818152602001828054610bba9061218c565b8015610c075780601f10610bdc57610100808354040283529160200191610c07565b820191906000526020600020905b815481529060010190602001808311610bea57829003601f168201915b5050505050908060010154905082565b6060610c2282610da3565b6000610c2c611390565b90506000815111610c4c5760405180602001604052806000815250610c77565b80610c56846113a7565b604051602001610c67929190612871565b6040516020818303038152906040525b915050919050565b6000600560008473ffffffffffffffffffffffffffffffffffffffff1673ffffffffffffffffffffffffffffffffffffffff16815260200190815260200160002060008373ffffffffffffffffffffffffffffffffffffffff1673ffffffffffffffffffffffffffffffffffffffff16815260200190815260200160002060009054906101000a900460ff16905092915050565b600760009054906101000a900473ffffffffffffffffffffffffffffffffffffffff1681565b60007f01ffc9a7000000000000000000000000000000000000000000000000000000007bffffffffffffffffffffffffffffffffffffffffffffffffffffffff1916827bffffffffffffffffffffffffffffffffffffffffffffffffffffffff1916149050919050565b610dac81611507565b610deb576040517f08c379a0000000000000000000000000000000000000000000000000000000008152600401610de290612783565b60405180910390fd5b50565b600033905090565b816004600083815260200190815260200160002060006101000a81548173ffffffffffffffffffffffffffffffffffffffff021916908373ffffffffffffffffffffffffffffffffffffffff160217905550808273ffffffffffffffffffffffffffffffffffffffff16610e69836108e9565b73ffffffffffffffffffffffffffffffffffffffff167f8c5be1e5ebec7d5bd14f71427d1e84f3dd0314c0f7b2291e5b200ac8c7c3b92560405160405180910390a45050565b610ec9828260405180602001604052806000815250611573565b5050565b600080610ed9836108e9565b90508073ffffffffffffffffffffffffffffffffffffffff168473ffffffffffffffffffffffffffffffffffffffff161480610f1b5750610f1a8185610c7f565b5b80610f5957508373ffffffffffffffffffffffffffffffffffffffff16610f4184610507565b73ffffffffffffffffffffffffffffffffffffffff16145b91505092915050565b8273ffffffffffffffffffffffffffffffffffffffff16610f82826108e9565b73ffffffffffffffffffffffffffffffffffffffff1614610fd8576040517f08c379a0000000000000000000000000000000000000000000000000000000008152600401610fcf90612907565b60405180910390fd5b600073ffffffffffffffffffffffffffffffffffffffff168273ffffffffffffffffffffffffffffffffffffffff1603611047576040517f08c379a000000000000000000000000000000000000000000000000000000000815260040161103e90612999565b60405180910390fd5b6110528383836115ce565b61105d600082610df6565b6001600360008573ffffffffffffffffffffffffffffffffffffffff1673ffffffffffffffffffffffffffffffffffffffff16815260200190815260200160002060008282546110ad91906129b9565b925050819055506001600360008473ffffffffffffffffffffffffffffffffffffffff1673ffffffffffffffffffffffffffffffffffffffff168152602001908152602001600020600082825461110491906126e1565b92505081905550816002600083815260200190815260200160002060006101000a81548173ffffffffffffffffffffffffffffffffffffffff021916908373ffffffffffffffffffffffffffffffffffffffff160217905550808273ffffffffffffffffffffffffffffffffffffffff168473ffffffffffffffffffffffffffffffffffffffff167fddf252ad1be2c89b69c2b068fc378daa952ba7f163c4a11628f55a4df523b3ef60405160405180910390a46111c38383836115d3565b505050565b8173ffffffffffffffffffffffffffffffffffffffff168373ffffffffffffffffffffffffffffffffffffffff1603611236576040517f08c379a000000000000000000000000000000000000000000000000000000000815260040161122d90612a39565b60405180910390fd5b80600560008573ffffffffffffffffffffffffffffffffffffffff1673ffffffffffffffffffffffffffffffffffffffff16815260200190815260200160002060008473ffffffffffffffffffffffffffffffffffffffff1673ffffffffffffffffffffffffffffffffffffffff16815260200190815260200160002060006101000a81548160ff0219169083151502179055508173ffffffffffffffffffffffffffffffffffffffff168373ffffffffffffffffffffffffffffffffffffffff167f17307eab39ab6107e8899845ad3d59bd9653f200f220920489ca2b5937696c31836040516113279190611a29565b60405180910390a3505050565b61133f848484610f62565b61134b848484846115d8565b61138a576040517f08c379a000000000000000000000000000000000000000000000000000000000815260040161138190612acb565b60405180910390fd5b50505050565b606060405180602001604052806000815250905090565b6060600082036113ee576040518060400160405280600181526020017f30000000000000000000000000000000000000000000000000000000000000008152509050611502565b600082905060005b6000821461142057808061140990612aeb565b915050600a826114199190612b62565b91506113f6565b60008167ffffffffffffffff81111561143c5761143b611c34565b5b6040519080825280601f01601f19166020018201604052801561146e5781602001600182028036833780820191505090505b5090505b600085146114fb5760018261148791906129b9565b9150600a856114969190612b93565b60306114a291906126e1565b60f81b8183815181106114b8576114b7612683565b5b60200101907effffffffffffffffffffffffffffffffffffffffffffffffffffffffffffff1916908160001a905350600a856114f49190612b62565b9450611472565b8093505050505b919050565b60008073ffffffffffffffffffffffffffffffffffffffff166002600084815260200190815260200160002060009054906101000a900473ffffffffffffffffffffffffffffffffffffffff1673ffffffffffffffffffffffffffffffffffffffff1614159050919050565b61157d838361175f565b61158a60008484846115d8565b6115c9576040517f08c379a00000000000000000000000000000000000000000000000000000000081526004016115c090612acb565b60405180910390fd5b505050565b505050565b505050565b60006115f98473ffffffffffffffffffffffffffffffffffffffff16611938565b15611752578373ffffffffffffffffffffffffffffffffffffffff1663150b7a02611622610dee565b8786866040518563ffffffff1660e01b81526004016116449493929190612c19565b6020604051808303816000875af192505050801561168057506040513d601f19601f8201168201806040525081019061167d9190612c7a565b60015b611702573d80600081146116b0576040519150601f19603f3d011682016040523d82523d6000602084013e6116b5565b606091505b5060008151036116fa576040517f08c379a00000000000000000000000000000000000000000000000000000000081526004016116f190612acb565b60405180910390fd5b805181602001fd5b63150b7a0260e01b7bffffffffffffffffffffffffffffffffffffffffffffffffffffffff1916817bffffffffffffffffffffffffffffffffffffffffffffffffffffffff191614915050611757565b600190505b949350505050565b600073ffffffffffffffffffffffffffffffffffffffff168273ffffffffffffffffffffffffffffffffffffffff16036117ce576040517f08c379a00000000000000000000000000000000000000000000000000000000081526004016117c590612cf3565b60405180910390fd5b6117d781611507565b15611817576040517f08c379a000000000000000000000000000000000000000000000000000000000815260040161180e90612d5f565b60405180910390fd5b611823600083836115ce565b6001600360008473ffffffffffffffffffffffffffffffffffffffff1673ffffffffffffffffffffffffffffffffffffffff168152602001908152602001600020600082825461187391906126e1565b92505081905550816002600083815260200190815260200160002060006101000a81548173ffffffffffffffffffffffffffffffffffffffff021916908373ffffffffffffffffffffffffffffffffffffffff160217905550808273ffffffffffffffffffffffffffffffffffffffff16600073ffffffffffffffffffffffffffffffffffffffff167fddf252ad1be2c89b69c2b068fc378daa952ba7f163c4a11628f55a4df523b3ef60405160405180910390a4611934600083836115d3565b5050565b6000808273ffffffffffffffffffffffffffffffffffffffff163b119050919050565b604051806040016040528060608152602001600081525090565b6000604051905090565b600080fd5b600080fd5b60007fffffffff0000000000000000000000000000000000000000000000000000000082169050919050565b6119be81611989565b81146119c957600080fd5b50565b6000813590506119db816119b5565b92915050565b6000602082840312156119f7576119f661197f565b5b6000611a05848285016119cc565b91505092915050565b60008115159050919050565b611a2381611a0e565b82525050565b6000602082019050611a3e6000830184611a1a565b92915050565b600081519050919050565b600082825260208201905092915050565b60005b83811015611a7e578082015181840152602081019050611a63565b83811115611a8d576000848401525b50505050565b6000601f19601f8301169050919050565b6000611aaf82611a44565b611ab98185611a4f565b9350611ac9818560208601611a60565b611ad281611a93565b840191505092915050565b60006020820190508181036000830152611af78184611aa4565b905092915050565b6000819050919050565b611b1281611aff565b8114611b1d57600080fd5b50565b600081359050611b2f81611b09565b92915050565b600060208284031215611b4b57611b4a61197f565b5b6000611b5984828501611b20565b91505092915050565b600073ffffffffffffffffffffffffffffffffffffffff82169050919050565b6000611b8d82611b62565b9050919050565b611b9d81611b82565b82525050565b6000602082019050611bb86000830184611b94565b92915050565b611bc781611b82565b8114611bd257600080fd5b50565b600081359050611be481611bbe565b92915050565b60008060408385031215611c0157611c0061197f565b5b6000611c0f85828601611bd5565b9250506020611c2085828601611b20565b9150509250929050565b600080fd5b600080fd5b7f4e487b7100000000000000000000000000000000000000000000000000000000600052604160045260246000fd5b611c6c82611a93565b810181811067ffffffffffffffff82111715611c8b57611c8a611c34565b5b80604052505050565b6000611c9e611975565b9050611caa8282611c63565b919050565b600067ffffffffffffffff821115611cca57611cc9611c34565b5b611cd382611a93565b9050602081019050919050565b82818337600083830152505050565b6000611d02611cfd84611caf565b611c94565b905082815260208101848484011115611d1e57611d1d611c2f565b5b611d29848285611ce0565b509392505050565b600082601f830112611d4657611d45611c2a565b5b8135611d56848260208601611cef565b91505092915050565b60008060408385031215611d7657611d7561197f565b5b600083013567ffffffffffffffff811115611d9457611d93611984565b5b611da085828601611d31565b9250506020611db185828601611bd5565b9150509250929050565b600082825260208201905092915050565b6000611dd782611a44565b611de18185611dbb565b9350611df1818560208601611a60565b611dfa81611a93565b840191505092915050565b611e0e81611aff565b82525050565b60006040830160008301518482036000860152611e318282611dcc565b9150506020830151611e466020860182611e05565b508091505092915050565b60006020820190508181036000830152611e6b8184611e14565b905092915050565b600080600060608486031215611e8c57611e8b61197f565b5b6000611e9a86828701611bd5565b9350506020611eab86828701611bd5565b9250506040611ebc86828701611b20565b9150509250925092565b60008060408385031215611edd57611edc61197f565b5b6000611eeb85828601611b20565b9250506020611efc85828601611b20565b9150509250929050565b600060208284031215611f1c57611f1b61197f565b5b6000611f2a84828501611bd5565b91505092915050565b611f3c81611aff565b82525050565b6000602082019050611f576000830184611f33565b92915050565b611f6681611a0e565b8114611f7157600080fd5b50565b600081359050611f8381611f5d565b92915050565b60008060408385031215611fa057611f9f61197f565b5b6000611fae85828601611bd5565b9250506020611fbf85828601611f74565b9150509250929050565b600067ffffffffffffffff821115611fe457611fe3611c34565b5b611fed82611a93565b9050602081019050919050565b600061200d61200884611fc9565b611c94565b90508281526020810184848401111561202957612028611c2f565b5b612034848285611ce0565b509392505050565b600082601f83011261205157612050611c2a565b5b8135612061848260208601611ffa565b91505092915050565b600080600080608085870312156120845761208361197f565b5b600061209287828801611bd5565b94505060206120a387828801611bd5565b93505060406120b487828801611b20565b925050606085013567ffffffffffffffff8111156120d5576120d4611984565b5b6120e18782880161203c565b91505092959194509250565b600060408201905081810360008301526121078185611aa4565b90506121166020830184611f33565b9392505050565b600080604083850312156121345761213361197f565b5b600061214285828601611bd5565b925050602061215385828601611bd5565b9150509250929050565b7f4e487b7100000000000000000000000000000000000000000000000000000000600052602260045260246000fd5b600060028204905060018216806121a457607f821691505b6020821081036121b7576121b661215d565b5b50919050565b7f4552433732313a20617070726f76616c20746f2063757272656e74206f776e6560008201527f7200000000000000000000000000000000000000000000000000000000000000602082015250565b6000612219602183611a4f565b9150612224826121bd565b604082019050919050565b600060208201905081810360008301526122488161220c565b9050919050565b7f4552433732313a20617070726f76652063616c6c6572206973206e6f7420746f60008201527f6b656e206f776e6572206e6f7220617070726f76656420666f7220616c6c0000602082015250565b60006122ab603e83611a4f565b91506122b68261224f565b604082019050919050565b600060208201905081810360008301526122da8161229e565b9050919050565b7f4f6e6c792067616d65206f776e65722063616e20637265617465206e6577206d60008201527f6f6e737465727300000000000000000000000000000000000000000000000000602082015250565b600061233d602783611a4f565b9150612348826122e1565b604082019050919050565b6000602082019050818103600083015261236c81612330565b9050919050565b60008190508160005260206000209050919050565b60006020601f8301049050919050565b600082821b905092915050565b6000600883026123d57fffffffffffffffffffffffffffffffffffffffffffffffffffffffffffffffff82612398565b6123df8683612398565b95508019841693508086168417925050509392505050565b6000819050919050565b600061241c61241761241284611aff565b6123f7565b611aff565b9050919050565b6000819050919050565b61243683612401565b61244a61244282612423565b8484546123a5565b825550505050565b600090565b61245f612452565b61246a81848461242d565b505050565b5b8181101561248e57612483600082612457565b600181019050612470565b5050565b601f8211156124d3576124a481612373565b6124ad84612388565b810160208510156124bc578190505b6124d06124c885612388565b83018261246f565b50505b505050565b600082821c905092915050565b60006124f6600019846008026124d8565b1980831691505092915050565b600061250f83836124e5565b9150826002028217905092915050565b61252882611a44565b67ffffffffffffffff81111561254157612540611c34565b5b61254b825461218c565b612556828285612492565b600060209050601f8311600181146125895760008415612577578287015190505b6125818582612503565b8655506125e9565b601f19841661259786612373565b60005b828110156125bf5784890151825560018201915060208501945060208101905061259a565b868310156125dc57848901516125d8601f8916826124e5565b8355505b6001600288020188555050505b505050505050565b7f4552433732313a2063616c6c6572206973206e6f7420746f6b656e206f776e6560008201527f72206e6f7220617070726f766564000000000000000000000000000000000000602082015250565b600061264d602e83611a4f565b9150612658826125f1565b604082019050919050565b6000602082019050818103600083015261267c81612640565b9050919050565b7f4e487b7100000000000000000000000000000000000000000000000000000000600052603260045260246000fd5b7f4e487b7100000000000000000000000000000000000000000000000000000000600052601160045260246000fd5b60006126ec82611aff565b91506126f783611aff565b9250827fffffffffffffffffffffffffffffffffffffffffffffffffffffffffffffffff0382111561272c5761272b6126b2565b5b828201905092915050565b7f4552433732313a20696e76616c696420746f6b656e2049440000000000000000600082015250565b600061276d601883611a4f565b915061277882612737565b602082019050919050565b6000602082019050818103600083015261279c81612760565b9050919050565b7f4552433732313a2061646472657373207a65726f206973206e6f74206120766160008201527f6c6964206f776e65720000000000000000000000000000000000000000000000602082015250565b60006127ff602983611a4f565b915061280a826127a3565b604082019050919050565b6000602082019050818103600083015261282e816127f2565b9050919050565b600081905092915050565b600061284b82611a44565b6128558185612835565b9350612865818560208601611a60565b80840191505092915050565b600061287d8285612840565b91506128898284612840565b91508190509392505050565b7f4552433732313a207472616e736665722066726f6d20696e636f72726563742060008201527f6f776e6572000000000000000000000000000000000000000000000000000000602082015250565b60006128f1602583611a4f565b91506128fc82612895565b604082019050919050565b60006020820190508181036000830152612920816128e4565b9050919050565b7f4552433732313a207472616e7366657220746f20746865207a65726f2061646460008201527f7265737300000000000000000000000000000000000000000000000000000000602082015250565b6000612983602483611a4f565b915061298e82612927565b604082019050919050565b600060208201905081810360008301526129b281612976565b9050919050565b60006129c482611aff565b91506129cf83611aff565b9250828210156129e2576129e16126b2565b5b828203905092915050565b7f4552433732313a20617070726f766520746f2063616c6c657200000000000000600082015250565b6000612a23601983611a4f565b9150612a2e826129ed565b602082019050919050565b60006020820190508181036000830152612a5281612a16565b9050919050565b7f4552433732313a207472616e7366657220746f206e6f6e20455243373231526560008201527f63656976657220696d706c656d656e7465720000000000000000000000000000602082015250565b6000612ab5603283611a4f565b9150612ac082612a59565b604082019050919050565b60006020820190508181036000830152612ae481612aa8565b9050919050565b6000612af682611aff565b91507fffffffffffffffffffffffffffffffffffffffffffffffffffffffffffffffff8203612b2857612b276126b2565b5b600182019050919050565b7f4e487b7100000000000000000000000000000000000000000000000000000000600052601260045260246000fd5b6000612b6d82611aff565b9150612b7883611aff565b925082612b8857612b87612b33565b5b828204905092915050565b6000612b9e82611aff565b9150612ba983611aff565b925082612bb957612bb8612b33565b5b828206905092915050565b600081519050919050565b600082825260208201905092915050565b6000612beb82612bc4565b612bf58185612bcf565b9350612c05818560208601611a60565b612c0e81611a93565b840191505092915050565b6000608082019050612c2e6000830187611b94565b612c3b6020830186611b94565b612c486040830185611f33565b8181036060830152612c5a8184612be0565b905095945050505050565b600081519050612c74816119b5565b92915050565b600060208284031215612c9057612c8f61197f565b5b6000612c9e84828501612c65565b91505092915050565b7f4552433732313a206d696e7420746f20746865207a65726f2061646472657373600082015250565b6000612cdd602083611a4f565b9150612ce882612ca7565b602082019050919050565b60006020820190508181036000830152612d0c81612cd0565b9050919050565b7f4552433732313a20746f6b656e20616c7265616479206d696e74656400000000600082015250565b6000612d49601c83611a4f565b9150612d5482612d13565b602082019050919050565b60006020820190508181036000830152612d7881612d3c565b905091905056fea2646970667358221220cbfb8a6dddcbbbeb6a92c764bf6db8b0494bfab99656079e6bb5ec265aaa480f64736f6c634300080f0033",
  "immutableReferences": {},
  "source": "// SPDX-License-Identifier: MIT\r\npragma solidity >0.8.0;\r\nimport \"@openzeppelin/contracts/token/ERC721/ERC721.sol\";\r\n\r\nimport \"@openzeppelin/contracts/access/Ownable.sol\";\r\n\r\ncontract MonsterGame is ERC721 {\r\n    struct Monster {\r\n        string name;\r\n        uint level;\r\n    }\r\n    Monster[] public monsters;\r\n    address public gameOwner;\r\n    modifier onlyOwner() {\r\n        _;\r\n    }\r\n\r\n    constructor() public payable ERC721(\"Zcion\", \"ZC\") {\r\n        gameOwner = msg.sender;\r\n        monsters.push(Monster(\"ly\", 96));\r\n    }\r\n\r\n    // \r\n    function battle(uint _attackingMonster, uint _defendingMonster)\r\n        public\r\n        onlyOwner\r\n    {\r\n        Monster storage attacker = monsters[_attackingMonster];\r\n        Monster storage defender = monsters[_defendingMonster];\r\n        if (attacker.level >= defender.level) {\r\n            attacker.level += 2;\r\n            defender.level += 1;\r\n        } else {\r\n            attacker.level += 1;\r\n            attacker.level += 2;\r\n        }\r\n    }\r\n\r\n    //\r\n    function createNewMonster(string memory _name, address _to)\r\n        public\r\n        returns (Monster memory)\r\n    {\r\n        require(\r\n            msg.sender == gameOwner,\r\n            \"Only game owner can create new monsters\"\r\n        );\r\n        uint id = monsters.length;\r\n        monsters.push(Monster(_name, 1));\r\n        _safeMint(_to, id);\r\n        return Monster(_name, 1);\r\n    }\r\n}\r\n",
  "sourcePath": "D:\\\\\\721baby\\contracts\\MonsterGame.sol",
  "compiler": {
    "name": "solc",
    "version": "0.8.15+commit.e14f2714.Emscripten.clang"
  },
  "schemaVersion": "3.4.8",
  "updatedAt": "2022-08-14T11:10:58.818Z",
  "devdoc": {
    "kind": "dev",
    "methods": {
      "approve(address,uint256)": {
        "details": "See {IERC721-approve}."
      },
      "balanceOf(address)": {
        "details": "See {IERC721-balanceOf}."
      },
      "getApproved(uint256)": {
        "details": "See {IERC721-getApproved}."
      },
      "isApprovedForAll(address,address)": {
        "details": "See {IERC721-isApprovedForAll}."
      },
      "name()": {
        "details": "See {IERC721Metadata-name}."
      },
      "ownerOf(uint256)": {
        "details": "See {IERC721-ownerOf}."
      },
      "safeTransferFrom(address,address,uint256)": {
        "details": "See {IERC721-safeTransferFrom}."
      },
      "safeTransferFrom(address,address,uint256,bytes)": {
        "details": "See {IERC721-safeTransferFrom}."
      },
      "setApprovalForAll(address,bool)": {
        "details": "See {IERC721-setApprovalForAll}."
      },
      "supportsInterface(bytes4)": {
        "details": "See {IERC165-supportsInterface}."
      },
      "symbol()": {
        "details": "See {IERC721Metadata-symbol}."
      },
      "tokenURI(uint256)": {
        "details": "See {IERC721Metadata-tokenURI}."
      },
      "transferFrom(address,address,uint256)": {
        "details": "See {IERC721-transferFrom}."
      }
    },
    "version": 1
  },
  "userdoc": {
    "kind": "user",
    "methods": {},
    "version": 1
  }
}