{
  "contractName": "MonsterGame",
  "abi": [
    {
      "inputs": [],
      "stateMutability": "payable",
      "type": "constructor",
      "payable": true
    },
    {
      "anonymous": false,
      "inputs": [
        {
          "indexed": true,
          "internalType": "address",
          "name": "owner",
          "type": "address"
        },
        {
          "indexed": true,
          "internalType": "address",
          "name": "approved",
          "type": "address"
        },
        {
          "indexed": true,
          "internalType": "uint256",
          "name": "tokenId",
          "type": "uint256"
        }
      ],
      "name": "Approval",
      "type": "event"
    },
    {
      "anonymous": false,
      "inputs": [
        {
          "indexed": true,
          "internalType": "address",
          "name": "owner",
          "type": "address"
        },
        {
          "indexed": true,
          "internalType": "address",
          "name": "operator",
          "type": "address"
        },
        {
          "indexed": false,
          "internalType": "bool",
          "name": "approved",
          "type": "bool"
        }
      ],
      "name": "ApprovalForAll",
      "type": "event"
    },
    {
      "anonymous": false,
      "inputs": [
        {
          "indexed": true,
          "internalType": "address",
          "name": "from",
          "type": "address"
        },
        {
          "indexed": true,
          "internalType": "address",
          "name": "to",
          "type": "address"
        },
        {
          "indexed": true,
          "internalType": "uint256",
          "name": "tokenId",
          "type": "uint256"
        }
      ],
      "name": "Transfer",
      "type": "event"
    },
    {
      "inputs": [
        {
          "internalType": "address",
          "name": "to",
          "type": "address"
        },
        {
          "internalType": "uint256",
          "name": "tokenId",
          "type": "uint256"
        }
      ],
      "name": "approve",
      "outputs": [],
      "stateMutability": "nonpayable",
      "type": "function"
    },
    {
      "inputs": [
        {
          "internalType": "address",
          "name": "owner",
          "type": "address"
        }
      ],
      "name": "balanceOf",
      "outputs": [
        {
          "internalType": "uint256",
          "name": "",
          "type": "uint256"
        }
      ],
      "stateMutability": "view",
      "type": "function",
      "constant": true
    },
    {
      "inputs": [],
      "name": "gameOwner",
      "outputs": [
        {
          "internalType": "address",
          "name": "",
          "type": "address"
        }
      ],
      "stateMutability": "view",
      "type": "function",
      "constant": true
    },
    {
      "inputs": [
        {
          "internalType": "uint256",
          "name": "tokenId",
          "type": "uint256"
        }
      ],
      "name": "getApproved",
      "outputs": [
        {
          "internalType": "address",
          "name": "",
          "type": "address"
        }
      ],
      "stateMutability": "view",
      "type": "function",
      "constant": true
    },
    {
      "inputs": [
        {
          "internalType": "address",
          "name": "owner",
          "type": "address"
        },
        {
          "internalType": "address",
          "name": "operator",
          "type": "address"
        }
      ],
      "name": "isApprovedForAll",
      "outputs": [
        {
          "internalType": "bool",
          "name": "",
          "type": "bool"
        }
      ],
      "stateMutability": "view",
      "type": "function",
      "constant": true
    },
    {
      "inputs": [
        {
          "internalType": "uint256",
          "name": "",
          "type": "uint256"
        }
      ],
      "name": "monsters",
      "outputs": [
        {
          "internalType": "string",
          "name": "name",
          "type": "string"
        },
        {
          "internalType": "uint256",
          "name": "level",
          "type": "uint256"
        }
      ],
      "stateMutability": "view",
      "type": "function",
      "constant": true
    },
    {
      "inputs": [],
      "name": "name",
      "outputs": [
        {
          "internalType": "string",
          "name": "",
          "type": "string"
        }
      ],
      "stateMutability": "view",
      "type": "function",
      "constant": true
    },
    {
      "inputs": [
        {
          "internalType": "uint256",
          "name": "tokenId",
          "type": "uint256"
        }
      ],
      "name": "ownerOf",
      "outputs": [
        {
          "internalType": "address",
          "name": "",
          "type": "address"
        }
      ],
      "stateMutability": "view",
      "type": "function",
      "constant": true
    },
    {
      "inputs": [
        {
          "internalType": "address",
          "name": "from",
          "type": "address"
        },
        {
          "internalType": "address",
          "name": "to",
          "type": "address"
        },
        {
          "internalType": "uint256",
          "name": "tokenId",
          "type": "uint256"
        }
      ],
      "name": "safeTransferFrom",
      "outputs": [],
      "stateMutability": "nonpayable",
      "type": "function"
    },
    {
      "inputs": [
        {
          "internalType": "address",
          "name": "from",
          "type": "address"
        },
        {
          "internalType": "address",
          "name": "to",
          "type": "address"
        },
        {
          "internalType": "uint256",
          "name": "tokenId",
          "type": "uint256"
        },
        {
          "internalType": "bytes",
          "name": "data",
          "type": "bytes"
        }
      ],
      "name": "safeTransferFrom",
      "outputs": [],
      "stateMutability": "nonpayable",
      "type": "function"
    },
    {
      "inputs": [
        {
          "internalType": "address",
          "name": "operator",
          "type": "address"
        },
        {
          "internalType": "bool",
          "name": "approved",
          "type": "bool"
        }
      ],
      "name": "setApprovalForAll",
      "outputs": [],
      "stateMutability": "nonpayable",
      "type": "function"
    },
    {
      "inputs": [
        {
          "internalType": "bytes4",
          "name": "interfaceId",
          "type": "bytes4"
        }
      ],
      "name": "supportsInterface",
      "outputs": [
        {
          "internalType": "bool",
          "name": "",
          "type": "bool"
        }
      ],
      "stateMutability": "view",
      "type": "function",
      "constant": true
    },
    {
      "inputs": [],
      "name": "symbol",
      "outputs": [
        {
          "internalType": "string",
          "name": "",
          "type": "string"
        }
      ],
      "stateMutability": "view",
      "type": "function",
      "constant": true
    },
    {
      "inputs": [
        {
          "internalType": "uint256",
          "name": "tokenId",
          "type": "uint256"
        }
      ],
      "name": "tokenURI",
      "outputs": [
        {
          "internalType": "string",
          "name": "",
          "type": "string"
        }
      ],
      "stateMutability": "view",
      "type": "function",
      "constant": true
    },
    {
      "inputs": [
        {
          "internalType": "address",
          "name": "from",
          "type": "address"
        },
        {
          "internalType": "address",
          "name": "to",
          "type": "address"
        },
        {
          "internalType": "uint256",
          "name": "tokenId",
          "type": "uint256"
        }
      ],
      "name": "transferFrom",
      "outputs": [],
      "stateMutability": "nonpayable",
      "type": "function"
    },
    {
      "inputs": [],
      "name": "getMonsters",
      "outputs": [
        {
          "components": [
            {
              "internalType": "string",
              "name": "name",
              "type": "string"
            },
            {
              "internalType": "uint256",
              "name": "level",
              "type": "uint256"
            }
          ],
          "internalType": "struct MonsterGame.Monster[]",
          "name": "list",
          "type": "tuple[]"
        }
      ],
      "stateMutability": "nonpayable",
      "type": "function"
    },
    {
      "inputs": [
        {
          "internalType": "uint256",
          "name": "_attackingMonster",
          "type": "uint256"
        },
        {
          "internalType": "uint256",
          "name": "_defendingMonster",
          "type": "uint256"
        }
      ],
      "name": "battle",
      "outputs": [],
      "stateMutability": "nonpayable",
      "type": "function"
    },
    {
      "inputs": [
        {
          "internalType": "string",
          "name": "_name",
          "type": "string"
        },
        {
          "internalType": "address",
          "name": "_to",
          "type": "address"
        }
      ],
      "name": "createNewMonster",
      "outputs": [
        {
          "components": [
            {
              "internalType": "string",
              "name": "name",
              "type": "string"
            },
            {
              "internalType": "uint256",
              "name": "level",
              "type": "uint256"
            }
          ],
          "internalType": "struct MonsterGame.Monster",
          "name": "",
          "type": "tuple"
        }
      ],
      "stateMutability": "nonpayable",
      "type": "function"
    }
  ],
  "bytecode": "0x60806040526040518060400160405280600581526020017f5a63696f6e0000000000000000000000000000000000000000000000000000008152506040518060400160405280600281526020017f5a430000000000000000000000000000000000000000000000000000000000008152508160009081620000819190620003f1565b508060019081620000939190620003f1565b50505033600760006101000a81548173ffffffffffffffffffffffffffffffffffffffff021916908373ffffffffffffffffffffffffffffffffffffffff160217905550600660405180604001604052806040518060400160405280600281526020017f6c790000000000000000000000000000000000000000000000000000000000008152508152602001606081525090806001815401808255809150506001900390600052602060002090600202016000909190919091506000820151816000019081620001649190620003f1565b50602082015181600101555050620004d8565b600081519050919050565b7f4e487b7100000000000000000000000000000000000000000000000000000000600052604160045260246000fd5b7f4e487b7100000000000000000000000000000000000000000000000000000000600052602260045260246000fd5b60006002820490506001821680620001f957607f821691505b6020821081036200020f576200020e620001b1565b5b50919050565b60008190508160005260206000209050919050565b60006020601f8301049050919050565b600082821b905092915050565b600060088302620002797fffffffffffffffffffffffffffffffffffffffffffffffffffffffffffffffff826200023a565b6200028586836200023a565b95508019841693508086168417925050509392505050565b6000819050919050565b6000819050919050565b6000620002d2620002cc620002c6846200029d565b620002a7565b6200029d565b9050919050565b6000819050919050565b620002ee83620002b1565b62000306620002fd82620002d9565b84845462000247565b825550505050565b600090565b6200031d6200030e565b6200032a818484620002e3565b505050565b5b8181101562000352576200034660008262000313565b60018101905062000330565b5050565b601f821115620003a1576200036b8162000215565b62000376846200022a565b8101602085101562000386578190505b6200039e62000395856200022a565b8301826200032f565b50505b505050565b600082821c905092915050565b6000620003c660001984600802620003a6565b1980831691505092915050565b6000620003e18383620003b3565b9150826002028217905092915050565b620003fc8262000177565b67ffffffffffffffff81111562000418576200041762000182565b5b620004248254620001e0565b6200043182828562000356565b600060209050601f83116001811462000469576000841562000454578287015190505b620004608582620003d3565b865550620004d0565b601f198416620004798662000215565b60005b82811015620004a3578489015182556001820191506020850194506020810190506200047c565b86831015620004c35784890151620004bf601f891682620003b3565b8355505b6001600288020188555050505b505050505050565b612ffa80620004e86000396000f3fe608060405234801561001057600080fd5b50600436106101165760003560e01c80636352211e116100a2578063b88d4fde11610071578063b88d4fde146102f1578063c0576b731461030d578063c87b56dd1461033e578063e985e9c51461036e578063f6b12f281461039e57610116565b80636352211e1461025757806370a082311461028757806395d89b41146102b7578063a22cb465146102d557610116565b8063115dd1ab116100e9578063115dd1ab146101b557806323b872dd146101e55780632a0c522114610201578063319e77131461021d57806342842e0e1461023b57610116565b806301ffc9a71461011b57806306fdde031461014b578063081812fc14610169578063095ea7b314610199575b600080fd5b61013560048036038101906101309190611b05565b6103bc565b6040516101429190611b4d565b60405180910390f35b61015361049e565b6040516101609190611c01565b60405180910390f35b610183600480360381019061017e9190611c59565b610530565b6040516101909190611cc7565b60405180910390f35b6101b360048036038101906101ae9190611d0e565b610576565b005b6101cf60048036038101906101ca9190611e83565b61068d565b6040516101dc9190611f75565b60405180910390f35b6101ff60048036038101906101fa9190611f97565b6107bb565b005b61021b60048036038101906102169190611fea565b61081b565b005b6102256108f2565b6040516102329190612129565b60405180910390f35b61025560048036038101906102509190611f97565b6109ed565b005b610271600480360381019061026c9190611c59565b610a0d565b60405161027e9190611cc7565b60405180910390f35b6102a1600480360381019061029c919061214b565b610abe565b6040516102ae9190612187565b60405180910390f35b6102bf610b75565b6040516102cc9190611c01565b60405180910390f35b6102ef60048036038101906102ea91906121ce565b610c07565b005b61030b600480360381019061030691906122af565b610c1d565b005b61032760048036038101906103229190611c59565b610c7f565b604051610335929190612332565b60405180910390f35b61035860048036038101906103539190611c59565b610d3b565b6040516103659190611c01565b60405180910390f35b61038860048036038101906103839190612362565b610da3565b6040516103959190611b4d565b60405180910390f35b6103a6610e37565b6040516103b39190611cc7565b60405180910390f35b60007f80ac58cd000000000000000000000000000000000000000000000000000000007bffffffffffffffffffffffffffffffffffffffffffffffffffffffff1916827bffffffffffffffffffffffffffffffffffffffffffffffffffffffff1916148061048757507f5b5e139f000000000000000000000000000000000000000000000000000000007bffffffffffffffffffffffffffffffffffffffffffffffffffffffff1916827bffffffffffffffffffffffffffffffffffffffffffffffffffffffff1916145b80610497575061049682610e5d565b5b9050919050565b6060600080546104ad906123d1565b80601f01602080910402602001604051908101604052809291908181526020018280546104d9906123d1565b80156105265780601f106104fb57610100808354040283529160200191610526565b820191906000526020600020905b81548152906001019060200180831161050957829003601f168201915b5050505050905090565b600061053b82610ec7565b6004600083815260200190815260200160002060009054906101000a900473ffffffffffffffffffffffffffffffffffffffff169050919050565b600061058182610a0d565b90508073ffffffffffffffffffffffffffffffffffffffff168373ffffffffffffffffffffffffffffffffffffffff16036105f1576040517f08c379a00000000000000000000000000000000000000000000000000000000081526004016105e890612474565b60405180910390fd5b8073ffffffffffffffffffffffffffffffffffffffff16610610610f12565b73ffffffffffffffffffffffffffffffffffffffff16148061063f575061063e81610639610f12565b610da3565b5b61067e576040517f08c379a000000000000000000000000000000000000000000000000000000000815260040161067590612506565b60405180910390fd5b6106888383610f1a565b505050565b610695611a7f565b600760009054906101000a900473ffffffffffffffffffffffffffffffffffffffff1673ffffffffffffffffffffffffffffffffffffffff163373ffffffffffffffffffffffffffffffffffffffff1614610725576040517f08c379a000000000000000000000000000000000000000000000000000000000815260040161071c90612598565b60405180910390fd5b60006006805490509050600660405180604001604052808681526020016001815250908060018154018082558091505060019003906000526020600020906002020160009091909190915060008201518160000190816107859190612764565b5060208201518160010155505061079c8382610fd3565b6040518060400160405280858152602001600181525091505092915050565b6107cc6107c6610f12565b82610ff1565b61080b576040517f08c379a0000000000000000000000000000000000000000000000000000000008152600401610802906128a8565b60405180910390fd5b610816838383611086565b505050565b600060068381548110610831576108306128c8565b5b90600052602060002090600202019050600060068381548110610857576108566128c8565b5b9060005260206000209060020201905080600101548260010154106108b357600282600101600082825461088b9190612926565b9250508190555060018160010160008282546108a79190612926565b925050819055506108ec565b60018260010160008282546108c89190612926565b9250508190555060028160010160008282546108e49190612926565b925050819055505b50505050565b60606006805480602002602001604051908101604052809291908181526020016000905b828210156109e45783829060005260206000209060020201604051806040016040529081600082018054610949906123d1565b80601f0160208091040260200160405190810160405280929190818152602001828054610975906123d1565b80156109c25780601f10610997576101008083540402835291602001916109c2565b820191906000526020600020905b8154815290600101906020018083116109a557829003601f168201915b5050505050815260200160018201548152505081526020019060010190610916565b50505050905090565b610a0883838360405180602001604052806000815250610c1d565b505050565b6000806002600084815260200190815260200160002060009054906101000a900473ffffffffffffffffffffffffffffffffffffffff169050600073ffffffffffffffffffffffffffffffffffffffff168173ffffffffffffffffffffffffffffffffffffffff1603610ab5576040517f08c379a0000000000000000000000000000000000000000000000000000000008152600401610aac906129c8565b60405180910390fd5b80915050919050565b60008073ffffffffffffffffffffffffffffffffffffffff168273ffffffffffffffffffffffffffffffffffffffff1603610b2e576040517f08c379a0000000000000000000000000000000000000000000000000000000008152600401610b2590612a5a565b60405180910390fd5b600360008373ffffffffffffffffffffffffffffffffffffffff1673ffffffffffffffffffffffffffffffffffffffff168152602001908152602001600020549050919050565b606060018054610b84906123d1565b80601f0160208091040260200160405190810160405280929190818152602001828054610bb0906123d1565b8015610bfd5780601f10610bd257610100808354040283529160200191610bfd565b820191906000526020600020905b815481529060010190602001808311610be057829003601f168201915b5050505050905090565b610c19610c12610f12565b83836112ec565b5050565b610c2e610c28610f12565b83610ff1565b610c6d576040517f08c379a0000000000000000000000000000000000000000000000000000000008152600401610c64906128a8565b60405180910390fd5b610c7984848484611458565b50505050565b60068181548110610c8f57600080fd5b9060005260206000209060020201600091509050806000018054610cb2906123d1565b80601f0160208091040260200160405190810160405280929190818152602001828054610cde906123d1565b8015610d2b5780601f10610d0057610100808354040283529160200191610d2b565b820191906000526020600020905b815481529060010190602001808311610d0e57829003601f168201915b5050505050908060010154905082565b6060610d4682610ec7565b6000610d506114b4565b90506000815111610d705760405180602001604052806000815250610d9b565b80610d7a846114cb565b604051602001610d8b929190612ab6565b6040516020818303038152906040525b915050919050565b6000600560008473ffffffffffffffffffffffffffffffffffffffff1673ffffffffffffffffffffffffffffffffffffffff16815260200190815260200160002060008373ffffffffffffffffffffffffffffffffffffffff1673ffffffffffffffffffffffffffffffffffffffff16815260200190815260200160002060009054906101000a900460ff16905092915050565b600760009054906101000a900473ffffffffffffffffffffffffffffffffffffffff1681565b60007f01ffc9a7000000000000000000000000000000000000000000000000000000007bffffffffffffffffffffffffffffffffffffffffffffffffffffffff1916827bffffffffffffffffffffffffffffffffffffffffffffffffffffffff1916149050919050565b610ed08161162b565b610f0f576040517f08c379a0000000000000000000000000000000000000000000000000000000008152600401610f06906129c8565b60405180910390fd5b50565b600033905090565b816004600083815260200190815260200160002060006101000a81548173ffffffffffffffffffffffffffffffffffffffff021916908373ffffffffffffffffffffffffffffffffffffffff160217905550808273ffffffffffffffffffffffffffffffffffffffff16610f8d83610a0d565b73ffffffffffffffffffffffffffffffffffffffff167f8c5be1e5ebec7d5bd14f71427d1e84f3dd0314c0f7b2291e5b200ac8c7c3b92560405160405180910390a45050565b610fed828260405180602001604052806000815250611697565b5050565b600080610ffd83610a0d565b90508073ffffffffffffffffffffffffffffffffffffffff168473ffffffffffffffffffffffffffffffffffffffff16148061103f575061103e8185610da3565b5b8061107d57508373ffffffffffffffffffffffffffffffffffffffff1661106584610530565b73ffffffffffffffffffffffffffffffffffffffff16145b91505092915050565b8273ffffffffffffffffffffffffffffffffffffffff166110a682610a0d565b73ffffffffffffffffffffffffffffffffffffffff16146110fc576040517f08c379a00000000000000000000000000000000000000000000000000000000081526004016110f390612b4c565b60405180910390fd5b600073ffffffffffffffffffffffffffffffffffffffff168273ffffffffffffffffffffffffffffffffffffffff160361116b576040517f08c379a000000000000000000000000000000000000000000000000000000000815260040161116290612bde565b60405180910390fd5b6111768383836116f2565b611181600082610f1a565b6001600360008573ffffffffffffffffffffffffffffffffffffffff1673ffffffffffffffffffffffffffffffffffffffff16815260200190815260200160002060008282546111d19190612bfe565b925050819055506001600360008473ffffffffffffffffffffffffffffffffffffffff1673ffffffffffffffffffffffffffffffffffffffff16815260200190815260200160002060008282546112289190612926565b92505081905550816002600083815260200190815260200160002060006101000a81548173ffffffffffffffffffffffffffffffffffffffff021916908373ffffffffffffffffffffffffffffffffffffffff160217905550808273ffffffffffffffffffffffffffffffffffffffff168473ffffffffffffffffffffffffffffffffffffffff167fddf252ad1be2c89b69c2b068fc378daa952ba7f163c4a11628f55a4df523b3ef60405160405180910390a46112e78383836116f7565b505050565b8173ffffffffffffffffffffffffffffffffffffffff168373ffffffffffffffffffffffffffffffffffffffff160361135a576040517f08c379a000000000000000000000000000000000000000000000000000000000815260040161135190612c7e565b60405180910390fd5b80600560008573ffffffffffffffffffffffffffffffffffffffff1673ffffffffffffffffffffffffffffffffffffffff16815260200190815260200160002060008473ffffffffffffffffffffffffffffffffffffffff1673ffffffffffffffffffffffffffffffffffffffff16815260200190815260200160002060006101000a81548160ff0219169083151502179055508173ffffffffffffffffffffffffffffffffffffffff168373ffffffffffffffffffffffffffffffffffffffff167f17307eab39ab6107e8899845ad3d59bd9653f200f220920489ca2b5937696c318360405161144b9190611b4d565b60405180910390a3505050565b611463848484611086565b61146f848484846116fc565b6114ae576040517f08c379a00000000000000000000000000000000000000000000000000000000081526004016114a590612d10565b60405180910390fd5b50505050565b606060405180602001604052806000815250905090565b606060008203611512576040518060400160405280600181526020017f30000000000000000000000000000000000000000000000000000000000000008152509050611626565b600082905060005b6000821461154457808061152d90612d30565b915050600a8261153d9190612da7565b915061151a565b60008167ffffffffffffffff8111156115605761155f611d58565b5b6040519080825280601f01601f1916602001820160405280156115925781602001600182028036833780820191505090505b5090505b6000851461161f576001826115ab9190612bfe565b9150600a856115ba9190612dd8565b60306115c69190612926565b60f81b8183815181106115dc576115db6128c8565b5b60200101907effffffffffffffffffffffffffffffffffffffffffffffffffffffffffffff1916908160001a905350600a856116189190612da7565b9450611596565b8093505050505b919050565b60008073ffffffffffffffffffffffffffffffffffffffff166002600084815260200190815260200160002060009054906101000a900473ffffffffffffffffffffffffffffffffffffffff1673ffffffffffffffffffffffffffffffffffffffff1614159050919050565b6116a18383611883565b6116ae60008484846116fc565b6116ed576040517f08c379a00000000000000000000000000000000000000000000000000000000081526004016116e490612d10565b60405180910390fd5b505050565b505050565b505050565b600061171d8473ffffffffffffffffffffffffffffffffffffffff16611a5c565b15611876578373ffffffffffffffffffffffffffffffffffffffff1663150b7a02611746610f12565b8786866040518563ffffffff1660e01b81526004016117689493929190612e5e565b6020604051808303816000875af19250505080156117a457506040513d601f19601f820116820180604052508101906117a19190612ebf565b60015b611826573d80600081146117d4576040519150601f19603f3d011682016040523d82523d6000602084013e6117d9565b606091505b50600081510361181e576040517f08c379a000000000000000000000000000000000000000000000000000000000815260040161181590612d10565b60405180910390fd5b805181602001fd5b63150b7a0260e01b7bffffffffffffffffffffffffffffffffffffffffffffffffffffffff1916817bffffffffffffffffffffffffffffffffffffffffffffffffffffffff19161491505061187b565b600190505b949350505050565b600073ffffffffffffffffffffffffffffffffffffffff168273ffffffffffffffffffffffffffffffffffffffff16036118f2576040517f08c379a00000000000000000000000000000000000000000000000000000000081526004016118e990612f38565b60405180910390fd5b6118fb8161162b565b1561193b576040517f08c379a000000000000000000000000000000000000000000000000000000000815260040161193290612fa4565b60405180910390fd5b611947600083836116f2565b6001600360008473ffffffffffffffffffffffffffffffffffffffff1673ffffffffffffffffffffffffffffffffffffffff16815260200190815260200160002060008282546119979190612926565b92505081905550816002600083815260200190815260200160002060006101000a81548173ffffffffffffffffffffffffffffffffffffffff021916908373ffffffffffffffffffffffffffffffffffffffff160217905550808273ffffffffffffffffffffffffffffffffffffffff16600073ffffffffffffffffffffffffffffffffffffffff167fddf252ad1be2c89b69c2b068fc378daa952ba7f163c4a11628f55a4df523b3ef60405160405180910390a4611a58600083836116f7565b5050565b6000808273ffffffffffffffffffffffffffffffffffffffff163b119050919050565b604051806040016040528060608152602001600081525090565b6000604051905090565b600080fd5b600080fd5b60007fffffffff0000000000000000000000000000000000000000000000000000000082169050919050565b611ae281611aad565b8114611aed57600080fd5b50565b600081359050611aff81611ad9565b92915050565b600060208284031215611b1b57611b1a611aa3565b5b6000611b2984828501611af0565b91505092915050565b60008115159050919050565b611b4781611b32565b82525050565b6000602082019050611b626000830184611b3e565b92915050565b600081519050919050565b600082825260208201905092915050565b60005b83811015611ba2578082015181840152602081019050611b87565b83811115611bb1576000848401525b50505050565b6000601f19601f8301169050919050565b6000611bd382611b68565b611bdd8185611b73565b9350611bed818560208601611b84565b611bf681611bb7565b840191505092915050565b60006020820190508181036000830152611c1b8184611bc8565b905092915050565b6000819050919050565b611c3681611c23565b8114611c4157600080fd5b50565b600081359050611c5381611c2d565b92915050565b600060208284031215611c6f57611c6e611aa3565b5b6000611c7d84828501611c44565b91505092915050565b600073ffffffffffffffffffffffffffffffffffffffff82169050919050565b6000611cb182611c86565b9050919050565b611cc181611ca6565b82525050565b6000602082019050611cdc6000830184611cb8565b92915050565b611ceb81611ca6565b8114611cf657600080fd5b50565b600081359050611d0881611ce2565b92915050565b60008060408385031215611d2557611d24611aa3565b5b6000611d3385828601611cf9565b9250506020611d4485828601611c44565b9150509250929050565b600080fd5b600080fd5b7f4e487b7100000000000000000000000000000000000000000000000000000000600052604160045260246000fd5b611d9082611bb7565b810181811067ffffffffffffffff82111715611daf57611dae611d58565b5b80604052505050565b6000611dc2611a99565b9050611dce8282611d87565b919050565b600067ffffffffffffffff821115611dee57611ded611d58565b5b611df782611bb7565b9050602081019050919050565b82818337600083830152505050565b6000611e26611e2184611dd3565b611db8565b905082815260208101848484011115611e4257611e41611d53565b5b611e4d848285611e04565b509392505050565b600082601f830112611e6a57611e69611d4e565b5b8135611e7a848260208601611e13565b91505092915050565b60008060408385031215611e9a57611e99611aa3565b5b600083013567ffffffffffffffff811115611eb857611eb7611aa8565b5b611ec485828601611e55565b9250506020611ed585828601611cf9565b9150509250929050565b600082825260208201905092915050565b6000611efb82611b68565b611f058185611edf565b9350611f15818560208601611b84565b611f1e81611bb7565b840191505092915050565b611f3281611c23565b82525050565b60006040830160008301518482036000860152611f558282611ef0565b9150506020830151611f6a6020860182611f29565b508091505092915050565b60006020820190508181036000830152611f8f8184611f38565b905092915050565b600080600060608486031215611fb057611faf611aa3565b5b6000611fbe86828701611cf9565b9350506020611fcf86828701611cf9565b9250506040611fe086828701611c44565b9150509250925092565b6000806040838503121561200157612000611aa3565b5b600061200f85828601611c44565b925050602061202085828601611c44565b9150509250929050565b600081519050919050565b600082825260208201905092915050565b6000819050602082019050919050565b600060408301600083015184820360008601526120738282611ef0565b91505060208301516120886020860182611f29565b508091505092915050565b600061209f8383612056565b905092915050565b6000602082019050919050565b60006120bf8261202a565b6120c98185612035565b9350836020820285016120db85612046565b8060005b8581101561211757848403895281516120f88582612093565b9450612103836120a7565b925060208a019950506001810190506120df565b50829750879550505050505092915050565b6000602082019050818103600083015261214381846120b4565b905092915050565b60006020828403121561216157612160611aa3565b5b600061216f84828501611cf9565b91505092915050565b61218181611c23565b82525050565b600060208201905061219c6000830184612178565b92915050565b6121ab81611b32565b81146121b657600080fd5b50565b6000813590506121c8816121a2565b92915050565b600080604083850312156121e5576121e4611aa3565b5b60006121f385828601611cf9565b9250506020612204858286016121b9565b9150509250929050565b600067ffffffffffffffff82111561222957612228611d58565b5b61223282611bb7565b9050602081019050919050565b600061225261224d8461220e565b611db8565b90508281526020810184848401111561226e5761226d611d53565b5b612279848285611e04565b509392505050565b600082601f83011261229657612295611d4e565b5b81356122a684826020860161223f565b91505092915050565b600080600080608085870312156122c9576122c8611aa3565b5b60006122d787828801611cf9565b94505060206122e887828801611cf9565b93505060406122f987828801611c44565b925050606085013567ffffffffffffffff81111561231a57612319611aa8565b5b61232687828801612281565b91505092959194509250565b6000604082019050818103600083015261234c8185611bc8565b905061235b6020830184612178565b9392505050565b6000806040838503121561237957612378611aa3565b5b600061238785828601611cf9565b925050602061239885828601611cf9565b9150509250929050565b7f4e487b7100000000000000000000000000000000000000000000000000000000600052602260045260246000fd5b600060028204905060018216806123e957607f821691505b6020821081036123fc576123fb6123a2565b5b50919050565b7f4552433732313a20617070726f76616c20746f2063757272656e74206f776e6560008201527f7200000000000000000000000000000000000000000000000000000000000000602082015250565b600061245e602183611b73565b915061246982612402565b604082019050919050565b6000602082019050818103600083015261248d81612451565b9050919050565b7f4552433732313a20617070726f76652063616c6c6572206973206e6f7420746f60008201527f6b656e206f776e6572206e6f7220617070726f76656420666f7220616c6c0000602082015250565b60006124f0603e83611b73565b91506124fb82612494565b604082019050919050565b6000602082019050818103600083015261251f816124e3565b9050919050565b7f4f6e6c792067616d65206f776e65722063616e20637265617465206e6577206d60008201527f6f6e737465727300000000000000000000000000000000000000000000000000602082015250565b6000612582602783611b73565b915061258d82612526565b604082019050919050565b600060208201905081810360008301526125b181612575565b9050919050565b60008190508160005260206000209050919050565b60006020601f8301049050919050565b600082821b905092915050565b60006008830261261a7fffffffffffffffffffffffffffffffffffffffffffffffffffffffffffffffff826125dd565b61262486836125dd565b95508019841693508086168417925050509392505050565b6000819050919050565b600061266161265c61265784611c23565b61263c565b611c23565b9050919050565b6000819050919050565b61267b83612646565b61268f61268782612668565b8484546125ea565b825550505050565b600090565b6126a4612697565b6126af818484612672565b505050565b5b818110156126d3576126c860008261269c565b6001810190506126b5565b5050565b601f821115612718576126e9816125b8565b6126f2846125cd565b81016020851015612701578190505b61271561270d856125cd565b8301826126b4565b50505b505050565b600082821c905092915050565b600061273b6000198460080261271d565b1980831691505092915050565b6000612754838361272a565b9150826002028217905092915050565b61276d82611b68565b67ffffffffffffffff81111561278657612785611d58565b5b61279082546123d1565b61279b8282856126d7565b600060209050601f8311600181146127ce57600084156127bc578287015190505b6127c68582612748565b86555061282e565b601f1984166127dc866125b8565b60005b82811015612804578489015182556001820191506020850194506020810190506127df565b86831015612821578489015161281d601f89168261272a565b8355505b6001600288020188555050505b505050505050565b7f4552433732313a2063616c6c6572206973206e6f7420746f6b656e206f776e6560008201527f72206e6f7220617070726f766564000000000000000000000000000000000000602082015250565b6000612892602e83611b73565b915061289d82612836565b604082019050919050565b600060208201905081810360008301526128c181612885565b9050919050565b7f4e487b7100000000000000000000000000000000000000000000000000000000600052603260045260246000fd5b7f4e487b7100000000000000000000000000000000000000000000000000000000600052601160045260246000fd5b600061293182611c23565b915061293c83611c23565b9250827fffffffffffffffffffffffffffffffffffffffffffffffffffffffffffffffff03821115612971576129706128f7565b5b828201905092915050565b7f4552433732313a20696e76616c696420746f6b656e2049440000000000000000600082015250565b60006129b2601883611b73565b91506129bd8261297c565b602082019050919050565b600060208201905081810360008301526129e1816129a5565b9050919050565b7f4552433732313a2061646472657373207a65726f206973206e6f74206120766160008201527f6c6964206f776e65720000000000000000000000000000000000000000000000602082015250565b6000612a44602983611b73565b9150612a4f826129e8565b604082019050919050565b60006020820190508181036000830152612a7381612a37565b9050919050565b600081905092915050565b6000612a9082611b68565b612a9a8185612a7a565b9350612aaa818560208601611b84565b80840191505092915050565b6000612ac28285612a85565b9150612ace8284612a85565b91508190509392505050565b7f4552433732313a207472616e736665722066726f6d20696e636f72726563742060008201527f6f776e6572000000000000000000000000000000000000000000000000000000602082015250565b6000612b36602583611b73565b9150612b4182612ada565b604082019050919050565b60006020820190508181036000830152612b6581612b29565b9050919050565b7f4552433732313a207472616e7366657220746f20746865207a65726f2061646460008201527f7265737300000000000000000000000000000000000000000000000000000000602082015250565b6000612bc8602483611b73565b9150612bd382612b6c565b604082019050919050565b60006020820190508181036000830152612bf781612bbb565b9050919050565b6000612c0982611c23565b9150612c1483611c23565b925082821015612c2757612c266128f7565b5b828203905092915050565b7f4552433732313a20617070726f766520746f2063616c6c657200000000000000600082015250565b6000612c68601983611b73565b9150612c7382612c32565b602082019050919050565b60006020820190508181036000830152612c9781612c5b565b9050919050565b7f4552433732313a207472616e7366657220746f206e6f6e20455243373231526560008201527f63656976657220696d706c656d656e7465720000000000000000000000000000602082015250565b6000612cfa603283611b73565b9150612d0582612c9e565b604082019050919050565b60006020820190508181036000830152612d2981612ced565b9050919050565b6000612d3b82611c23565b91507fffffffffffffffffffffffffffffffffffffffffffffffffffffffffffffffff8203612d6d57612d6c6128f7565b5b600182019050919050565b7f4e487b7100000000000000000000000000000000000000000000000000000000600052601260045260246000fd5b6000612db282611c23565b9150612dbd83611c23565b925082612dcd57612dcc612d78565b5b828204905092915050565b6000612de382611c23565b9150612dee83611c23565b925082612dfe57612dfd612d78565b5b828206905092915050565b600081519050919050565b600082825260208201905092915050565b6000612e3082612e09565b612e3a8185612e14565b9350612e4a818560208601611b84565b612e5381611bb7565b840191505092915050565b6000608082019050612e736000830187611cb8565b612e806020830186611cb8565b612e8d6040830185612178565b8181036060830152612e9f8184612e25565b905095945050505050565b600081519050612eb981611ad9565b92915050565b600060208284031215612ed557612ed4611aa3565b5b6000612ee384828501612eaa565b91505092915050565b7f4552433732313a206d696e7420746f20746865207a65726f2061646472657373600082015250565b6000612f22602083611b73565b9150612f2d82612eec565b602082019050919050565b60006020820190508181036000830152612f5181612f15565b9050919050565b7f4552433732313a20746f6b656e20616c7265616479206d696e74656400000000600082015250565b6000612f8e601c83611b73565b9150612f9982612f58565b602082019050919050565b60006020820190508181036000830152612fbd81612f81565b905091905056fea2646970667358221220c9dce0d7a4b6f9554def90162c63126cad907d2e41b568be92a5843673a63c1564736f6c634300080f0033",
  "immutableReferences": {},
  "source": "// SPDX-License-Identifier: MIT\r\npragma solidity >0.8.0;\r\nimport \"@openzeppelin/contracts/token/ERC721/ERC721.sol\";\r\n\r\nimport \"@openzeppelin/contracts/access/Ownable.sol\";\r\n\r\ncontract MonsterGame is ERC721 {\r\n    struct Monster {\r\n        string name;\r\n        uint level;\r\n    }\r\n    Monster[] public monsters;\r\n    address public gameOwner;\r\n    modifier onlyOwner() {\r\n        _;\r\n    }\r\n\r\n    constructor() public payable ERC721(\"Zcion\", \"ZC\") {\r\n        gameOwner = msg.sender;\r\n        monsters.push(Monster(\"ly\", 96));\r\n    }\r\n\r\n    function getMonsters() public returns (Monster[] memory list) {\r\n        list = monsters;\r\n    }\r\n\r\n    // \r\n    function battle(uint _attackingMonster, uint _defendingMonster)\r\n        public\r\n        onlyOwner\r\n    {\r\n        Monster storage attacker = monsters[_attackingMonster];\r\n        Monster storage defender = monsters[_defendingMonster];\r\n        if (attacker.level >= defender.level) {\r\n            attacker.level += 2;\r\n            defender.level += 1;\r\n        } else {\r\n            attacker.level += 1;\r\n            defender.level += 2;\r\n        }\r\n    }\r\n\r\n    //\r\n    function createNewMonster(string memory _name, address _to)\r\n        public\r\n        returns (Monster memory)\r\n    {\r\n        require(\r\n            msg.sender == gameOwner,\r\n            \"Only game owner can create new monsters\"\r\n        );\r\n        uint id = monsters.length;\r\n        monsters.push(Monster(_name, 1));\r\n        _safeMint(_to, id);\r\n        return Monster(_name, 1);\r\n    }\r\n}\r\n",
  "sourcePath": "D:\\\\github\\721baby\\contracts\\MonsterGame.sol",
  "compiler": {
    "name": "solc",
    "version": "0.8.15+commit.e14f2714.Emscripten.clang"
  },
  "schemaVersion": "3.4.8",
  "updatedAt": "2022-08-18T12:56:19.858Z",
  "networkType": "ethereum",
  "devdoc": {
    "kind": "dev",
    "methods": {
      "approve(address,uint256)": {
        "details": "See {IERC721-approve}."
      },
      "balanceOf(address)": {
        "details": "See {IERC721-balanceOf}."
      },
      "getApproved(uint256)": {
        "details": "See {IERC721-getApproved}."
      },
      "isApprovedForAll(address,address)": {
        "details": "See {IERC721-isApprovedForAll}."
      },
      "name()": {
        "details": "See {IERC721Metadata-name}."
      },
      "ownerOf(uint256)": {
        "details": "See {IERC721-ownerOf}."
      },
      "safeTransferFrom(address,address,uint256)": {
        "details": "See {IERC721-safeTransferFrom}."
      },
      "safeTransferFrom(address,address,uint256,bytes)": {
        "details": "See {IERC721-safeTransferFrom}."
      },
      "setApprovalForAll(address,bool)": {
        "details": "See {IERC721-setApprovalForAll}."
      },
      "supportsInterface(bytes4)": {
        "details": "See {IERC165-supportsInterface}."
      },
      "symbol()": {
        "details": "See {IERC721Metadata-symbol}."
      },
      "tokenURI(uint256)": {
        "details": "See {IERC721Metadata-tokenURI}."
      },
      "transferFrom(address,address,uint256)": {
        "details": "See {IERC721-transferFrom}."
      }
    },
    "version": 1
  },
  "userdoc": {
    "kind": "user",
    "methods": {},
    "version": 1
  }
}